{
  "_format": "hh-sol-artifact-1",
  "contractName": "AtomicSwap",
  "sourceName": "contracts/AtomicSwap.sol",
  "abi": [
    {
      "inputs": [
        {
          "internalType": "address",
          "name": "_bitcoinClient",
          "type": "address"
        }
      ],
      "stateMutability": "nonpayable",
      "type": "constructor"
    },
    {
      "anonymous": false,
      "inputs": [
        {
          "indexed": true,
          "internalType": "address",
          "name": "owner",
          "type": "address"
        }
      ],
      "name": "ContractCreated",
      "type": "event"
    },
    {
      "anonymous": false,
      "inputs": [
        {
          "indexed": true,
          "internalType": "address",
          "name": "sender",
          "type": "address"
        },
        {
          "indexed": false,
          "internalType": "uint256",
          "name": "amount",
          "type": "uint256"
        }
      ],
      "name": "FundsRefunded",
      "type": "event"
    },
    {
      "anonymous": false,
      "inputs": [
        {
          "indexed": true,
          "internalType": "address",
          "name": "receiver",
          "type": "address"
        },
        {
          "indexed": false,
          "internalType": "uint256",
          "name": "amount",
          "type": "uint256"
        }
      ],
      "name": "FundsWithdrawn",
      "type": "event"
    },
    {
      "anonymous": false,
      "inputs": [
        {
          "indexed": true,
          "internalType": "address",
          "name": "sender",
          "type": "address"
        },
        {
          "indexed": false,
          "internalType": "string",
          "name": "receiveAddress",
          "type": "string"
        },
        {
          "indexed": false,
          "internalType": "uint256",
          "name": "toBeSent",
          "type": "uint256"
        },
        {
          "indexed": false,
          "internalType": "uint256",
          "name": "toBeReceived",
          "type": "uint256"
        },
        {
          "indexed": false,
          "internalType": "uint256",
          "name": "timeLock",
          "type": "uint256"
        },
        {
          "indexed": false,
          "internalType": "uint256",
          "name": "swapId",
          "type": "uint256"
        }
      ],
      "name": "SwapCreated",
      "type": "event"
    },
    {
      "anonymous": false,
      "inputs": [
        {
          "indexed": false,
          "internalType": "bytes32",
          "name": "txid",
          "type": "bytes32"
        },
        {
          "indexed": false,
          "internalType": "uint256",
          "name": "swapId",
          "type": "uint256"
        },
        {
          "indexed": false,
          "internalType": "string",
          "name": "owner",
          "type": "string"
        },
        {
          "indexed": false,
          "internalType": "uint256",
          "name": "amount",
          "type": "uint256"
        }
      ],
      "name": "VerificationRequested",
      "type": "event"
    },
    {
      "inputs": [],
      "name": "bitcoinClient",
      "outputs": [
        {
          "internalType": "address",
          "name": "",
          "type": "address"
        }
      ],
      "stateMutability": "view",
      "type": "function"
    },
    {
      "inputs": [
        {
          "internalType": "uint256",
          "name": "swapId",
          "type": "uint256"
        },
        {
          "internalType": "bool",
          "name": "isVerified",
          "type": "bool"
        },
        {
          "internalType": "address",
          "name": "recipient",
          "type": "address"
        }
      ],
      "name": "completeVerification",
      "outputs": [],
      "stateMutability": "nonpayable",
      "type": "function"
    },
    {
      "inputs": [
        {
          "internalType": "string",
          "name": "receiveAddress",
          "type": "string"
        },
        {
          "internalType": "uint256",
          "name": "toBeReceived",
          "type": "uint256"
        }
      ],
      "name": "createSwap",
      "outputs": [],
      "stateMutability": "payable",
      "type": "function"
    },
    {
      "inputs": [],
      "name": "getBalance",
      "outputs": [
        {
          "internalType": "uint256",
          "name": "",
          "type": "uint256"
        }
      ],
      "stateMutability": "view",
      "type": "function"
    },
    {
      "inputs": [
        {
          "internalType": "uint256",
          "name": "swapId",
          "type": "uint256"
        }
      ],
      "name": "getSwap",
      "outputs": [
        {
          "components": [
            {
              "internalType": "address",
              "name": "owner",
              "type": "address"
            },
            {
              "internalType": "string",
              "name": "receiveAddress",
              "type": "string"
            },
            {
              "internalType": "uint256",
              "name": "toBeReceived",
              "type": "uint256"
            },
            {
              "internalType": "uint256",
              "name": "toBeSent",
              "type": "uint256"
            },
            {
              "internalType": "uint256",
              "name": "timeLock",
              "type": "uint256"
            },
            {
              "internalType": "bool",
              "name": "isOpen",
              "type": "bool"
            }
          ],
          "internalType": "struct Swap",
          "name": "",
          "type": "tuple"
        }
      ],
      "stateMutability": "view",
      "type": "function"
    },
    {
      "inputs": [
        {
          "internalType": "bytes32",
          "name": "txid",
          "type": "bytes32"
        },
        {
          "internalType": "uint256",
          "name": "swapId",
          "type": "uint256"
        }
      ],
      "name": "initiateVerification",
      "outputs": [],
      "stateMutability": "nonpayable",
      "type": "function"
    },
    {
      "inputs": [
        {
          "internalType": "uint256",
          "name": "swapId",
          "type": "uint256"
        }
      ],
      "name": "refund",
      "outputs": [],
      "stateMutability": "nonpayable",
      "type": "function"
    },
    {
      "inputs": [
        {
          "internalType": "uint256",
          "name": "",
          "type": "uint256"
        }
      ],
      "name": "swaps",
      "outputs": [
        {
          "internalType": "address",
          "name": "owner",
          "type": "address"
        },
        {
          "internalType": "string",
          "name": "receiveAddress",
          "type": "string"
        },
        {
          "internalType": "uint256",
          "name": "toBeReceived",
          "type": "uint256"
        },
        {
          "internalType": "uint256",
          "name": "toBeSent",
          "type": "uint256"
        },
        {
          "internalType": "uint256",
          "name": "timeLock",
          "type": "uint256"
        },
        {
          "internalType": "bool",
          "name": "isOpen",
          "type": "bool"
        }
      ],
      "stateMutability": "view",
      "type": "function"
    }
  ],
  "bytecode": "0x60806040523480156200001157600080fd5b5060405162001854380380620018548339818101604052810190620000379190620000d8565b806000806101000a81548173ffffffffffffffffffffffffffffffffffffffff021916908373ffffffffffffffffffffffffffffffffffffffff1602179055503373ffffffffffffffffffffffffffffffffffffffff167fcf78cf0d6f3d8371e1075c69c492ab4ec5d8cf23a1a239b6a51a1d00be7ca31260405160405180910390a25062000152565b600081519050620000d28162000138565b92915050565b600060208284031215620000eb57600080fd5b6000620000fb84828501620000c1565b91505092915050565b6000620001118262000118565b9050919050565b600073ffffffffffffffffffffffffffffffffffffffff82169050919050565b620001438162000104565b81146200014f57600080fd5b50565b6116f280620001626000396000f3fe60806040526004361061007b5760003560e01c80633b9a95151161004e5780633b9a9515146101285780634a0d89ba14610144578063a4327f6114610181578063f09c5829146101aa5761007b565b806312065fe01461008057806316659619146100ab578063278ecde1146100d65780632ee41b5a146100ff575b600080fd5b34801561008c57600080fd5b506100956101ec565b6040516100a2919061139f565b60405180910390f35b3480156100b757600080fd5b506100c06101f4565b6040516100cd9190611194565b60405180910390f35b3480156100e257600080fd5b506100fd60048036038101906100f89190610d92565b610218565b005b34801561010b57600080fd5b5061012660048036038101906101219190610dbb565b61045f565b005b610142600480360381019061013d9190610d3e565b610656565b005b34801561015057600080fd5b5061016b60048036038101906101669190610d92565b610864565b604051610178919061137d565b60405180910390f35b34801561018d57600080fd5b506101a860048036038101906101a39190610d02565b6109b2565b005b3480156101b657600080fd5b506101d160048036038101906101cc9190610d92565b610a64565b6040516101e3969594939291906111af565b60405180910390f35b600047905090565b60008054906101000a900473ffffffffffffffffffffffffffffffffffffffff1681565b60006001600083815260200190815260200160002090508060000160009054906101000a900473ffffffffffffffffffffffffffffffffffffffff1673ffffffffffffffffffffffffffffffffffffffff163373ffffffffffffffffffffffffffffffffffffffff16146102c1576040517f08c379a00000000000000000000000000000000000000000000000000000000081526004016102b89061135d565b60405180910390fd5b80600401544211610307576040517f08c379a00000000000000000000000000000000000000000000000000000000081526004016102fe9061133d565b60405180910390fd5b8060050160009054906101000a900460ff1615610359576040517f08c379a00000000000000000000000000000000000000000000000000000000081526004016103509061131d565b60405180910390fd5b60018160050160006101000a81548160ff0219169083151502179055508060000160009054906101000a900473ffffffffffffffffffffffffffffffffffffffff1673ffffffffffffffffffffffffffffffffffffffff166108fc82600301549081150290604051600060405180830381858888f193505050501580156103e4573d6000803e3d6000fd5b508060000160009054906101000a900473ffffffffffffffffffffffffffffffffffffffff1673ffffffffffffffffffffffffffffffffffffffff167fbada1a1bf129e41a8af5abe00997bd8a8cb1770cb0cf68314eb4b1d6c42713978260030154604051610453919061139f565b60405180910390a25050565b60008054906101000a900473ffffffffffffffffffffffffffffffffffffffff1673ffffffffffffffffffffffffffffffffffffffff163373ffffffffffffffffffffffffffffffffffffffff16146104ed576040517f08c379a00000000000000000000000000000000000000000000000000000000081526004016104e4906112bd565b60405180910390fd5b8161052d576040517f08c379a0000000000000000000000000000000000000000000000000000000008152600401610524906112dd565b60405180910390fd5b60006001600085815260200190815260200160002090508060050160009054906101000a900460ff1615610596576040517f08c379a000000000000000000000000000000000000000000000000000000000815260040161058d9061131d565b60405180910390fd5b60018160050160006101000a81548160ff0219169083151502179055508173ffffffffffffffffffffffffffffffffffffffff166108fc82600301549081150290604051600060405180830381858888f193505050501580156105fd573d6000803e3d6000fd5b508173ffffffffffffffffffffffffffffffffffffffff167feaff4b37086828766ad3268786972c0cd24259d4c87a80f9d3963a3c3d999b0d8260030154604051610648919061139f565b60405180910390a250505050565b60008111610699576040517f08c379a0000000000000000000000000000000000000000000000000000000008152600401610690906112fd565b60405180910390fd5b600034116106dc576040517f08c379a00000000000000000000000000000000000000000000000000000000081526004016106d3906112fd565b60405180910390fd5b600062093a80426106ed919061145d565b90506002600081548092919061070290611579565b91905055506040518060c001604052803373ffffffffffffffffffffffffffffffffffffffff1681526020018481526020018381526020013481526020018281526020016000151581525060016000600254815260200190815260200160002060008201518160000160006101000a81548173ffffffffffffffffffffffffffffffffffffffff021916908373ffffffffffffffffffffffffffffffffffffffff16021790555060208201518160010190805190602001906107c5929190610b55565b5060408201518160020155606082015181600301556080820151816004015560a08201518160050160006101000a81548160ff0219169083151502179055509050503373ffffffffffffffffffffffffffffffffffffffff167fbf65e11f5d58d2bc1ac858c074520983bf95345cce46b46921f8a630bdad5f6e84348585600254604051610857959493929190611263565b60405180910390a2505050565b61086c610bdb565b600160008381526020019081526020016000206040518060c00160405290816000820160009054906101000a900473ffffffffffffffffffffffffffffffffffffffff1673ffffffffffffffffffffffffffffffffffffffff1673ffffffffffffffffffffffffffffffffffffffff1681526020016001820180546108f090611547565b80601f016020809104026020016040519081016040528092919081815260200182805461091c90611547565b80156109695780601f1061093e57610100808354040283529160200191610969565b820191906000526020600020905b81548152906001019060200180831161094c57829003601f168201915b505050505081526020016002820154815260200160038201548152602001600482015481526020016005820160009054906101000a900460ff1615151515815250509050919050565b60006001600083815260200190815260200160002090508060050160009054906101000a900460ff1615610a1b576040517f08c379a0000000000000000000000000000000000000000000000000000000008152600401610a129061131d565b60405180910390fd5b7f210a63c825f4d82f7ae973f613b298c59fb47cb0f3e9cecf35e4fefc7d65da9d8383836001018460020154604051610a579493929190611217565b60405180910390a1505050565b60016020528060005260406000206000915090508060000160009054906101000a900473ffffffffffffffffffffffffffffffffffffffff1690806001018054610aad90611547565b80601f0160208091040260200160405190810160405280929190818152602001828054610ad990611547565b8015610b265780601f10610afb57610100808354040283529160200191610b26565b820191906000526020600020905b815481529060010190602001808311610b0957829003601f168201915b5050505050908060020154908060030154908060040154908060050160009054906101000a900460ff16905086565b828054610b6190611547565b90600052602060002090601f016020900481019282610b835760008555610bca565b82601f10610b9c57805160ff1916838001178555610bca565b82800160010185558215610bca579182015b82811115610bc9578251825591602001919060010190610bae565b5b509050610bd79190610c29565b5090565b6040518060c00160405280600073ffffffffffffffffffffffffffffffffffffffff168152602001606081526020016000815260200160008152602001600081526020016000151581525090565b5b80821115610c42576000816000905550600101610c2a565b5090565b6000610c59610c54846113eb565b6113ba565b905082815260208101848484011115610c7157600080fd5b610c7c848285611505565b509392505050565b600081359050610c9381611660565b92915050565b600081359050610ca881611677565b92915050565b600081359050610cbd8161168e565b92915050565b600082601f830112610cd457600080fd5b8135610ce4848260208601610c46565b91505092915050565b600081359050610cfc816116a5565b92915050565b60008060408385031215610d1557600080fd5b6000610d2385828601610cae565b9250506020610d3485828601610ced565b9150509250929050565b60008060408385031215610d5157600080fd5b600083013567ffffffffffffffff811115610d6b57600080fd5b610d7785828601610cc3565b9250506020610d8885828601610ced565b9150509250929050565b600060208284031215610da457600080fd5b6000610db284828501610ced565b91505092915050565b600080600060608486031215610dd057600080fd5b6000610dde86828701610ced565b9350506020610def86828701610c99565b9250506040610e0086828701610c84565b9150509250925092565b610e13816114b3565b82525050565b610e22816114b3565b82525050565b610e31816114c5565b82525050565b610e40816114c5565b82525050565b610e4f816114d1565b82525050565b6000610e6082611430565b610e6a818561143b565b9350610e7a818560208601611514565b610e838161164f565b840191505092915050565b6000610e9982611430565b610ea3818561144c565b9350610eb3818560208601611514565b610ebc8161164f565b840191505092915050565b60008154610ed481611547565b610ede818661144c565b94506001821660008114610ef95760018114610f0b57610f3e565b60ff1983168652602086019350610f3e565b610f148561141b565b60005b83811015610f3657815481890152600182019150602081019050610f17565b808801955050505b50505092915050565b6000610f5460298361144c565b91507f4f6e6c7920426974636f696e436c69656e742063616e2063616c6c207468697360008301527f2066756e6374696f6e00000000000000000000000000000000000000000000006020830152604082019050919050565b6000610fba60188361144c565b91507f5472616e73616374696f6e206e6f7420766572696669656400000000000000006000830152602082019050919050565b6000610ffa60208361144c565b91507f416d6f756e74206d7573742062652067726561746572207468616e207a65726f6000830152602082019050919050565b600061103a60168361144c565b91507f5377617020616c726561647920636f6d706c65746564000000000000000000006000830152602082019050919050565b600061107a60138361144c565b91507f546f6f206561726c7920746f20726566756e64000000000000000000000000006000830152602082019050919050565b60006110ba60128361144c565b91507f4e6f74207468652073776170206f776e657200000000000000000000000000006000830152602082019050919050565b600060c0830160008301516111056000860182610e0a565b506020830151848203602086015261111d8282610e55565b91505060408301516111326040860182611176565b5060608301516111456060860182611176565b5060808301516111586080860182611176565b5060a083015161116b60a0860182610e28565b508091505092915050565b61117f816114fb565b82525050565b61118e816114fb565b82525050565b60006020820190506111a96000830184610e19565b92915050565b600060c0820190506111c46000830189610e19565b81810360208301526111d68188610e8e565b90506111e56040830187611185565b6111f26060830186611185565b6111ff6080830185611185565b61120c60a0830184610e37565b979650505050505050565b600060808201905061122c6000830187610e46565b6112396020830186611185565b818103604083015261124b8185610ec7565b905061125a6060830184611185565b95945050505050565b600060a082019050818103600083015261127d8188610e8e565b905061128c6020830187611185565b6112996040830186611185565b6112a66060830185611185565b6112b36080830184611185565b9695505050505050565b600060208201905081810360008301526112d681610f47565b9050919050565b600060208201905081810360008301526112f681610fad565b9050919050565b6000602082019050818103600083015261131681610fed565b9050919050565b600060208201905081810360008301526113368161102d565b9050919050565b600060208201905081810360008301526113568161106d565b9050919050565b60006020820190508181036000830152611376816110ad565b9050919050565b6000602082019050818103600083015261139781846110ed565b905092915050565b60006020820190506113b46000830184611185565b92915050565b6000604051905081810181811067ffffffffffffffff821117156113e1576113e0611620565b5b8060405250919050565b600067ffffffffffffffff82111561140657611405611620565b5b601f19601f8301169050602081019050919050565b60008190508160005260206000209050919050565b600081519050919050565b600082825260208201905092915050565b600082825260208201905092915050565b6000611468826114fb565b9150611473836114fb565b9250827fffffffffffffffffffffffffffffffffffffffffffffffffffffffffffffffff038211156114a8576114a76115c2565b5b828201905092915050565b60006114be826114db565b9050919050565b60008115159050919050565b6000819050919050565b600073ffffffffffffffffffffffffffffffffffffffff82169050919050565b6000819050919050565b82818337600083830152505050565b60005b83811015611532578082015181840152602081019050611517565b83811115611541576000848401525b50505050565b6000600282049050600182168061155f57607f821691505b60208210811415611573576115726115f1565b5b50919050565b6000611584826114fb565b91507fffffffffffffffffffffffffffffffffffffffffffffffffffffffffffffffff8214156115b7576115b66115c2565b5b600182019050919050565b7f4e487b7100000000000000000000000000000000000000000000000000000000600052601160045260246000fd5b7f4e487b7100000000000000000000000000000000000000000000000000000000600052602260045260246000fd5b7f4e487b7100000000000000000000000000000000000000000000000000000000600052604160045260246000fd5b6000601f19601f8301169050919050565b611669816114b3565b811461167457600080fd5b50565b611680816114c5565b811461168b57600080fd5b50565b611697816114d1565b81146116a257600080fd5b50565b6116ae816114fb565b81146116b957600080fd5b5056fea2646970667358221220df66cce3c6d6b56e0093cc5fc9ff6b476f7f9e5e7632529813faac18161310eb64736f6c63430008000033",
  "linkReferences": {},
  "deployedLinkReferences": {}
}